:1000000033C0000045C0000043C0000058C00000DD
:100010003FC000003DC000003BC0000039C00000F0
:1000200037C0000035C0000033C0000031C0000000
:100030002FC000002DC000002BC0000029C0000010
:1000400027C0000025C0000023C0000021C0000020
:100050001FC000001DC000001BC0000019C0000030
:1000600017C0000015C0000011241FBECFEFD8E05C
:10007000DEBFCDBF11E0A0E0B1E0EEEDF4E102C0E3
:1000800005900D92A231B107D9F723D00C946D0AD7
:10009000B7CFCF93DF931F92CDB7DEB7249A80E41A
:1000A0008CBD8DB589838EB589830F90DF91CF91FB
:1000B00008958EBD0DB407FEFDCF8EB508951F9235
:1000C0000F920FB60F9211240F900FBE0F901F903A
:1000D00018952F923F924F925F926F927F928F92DC
:1000E0009F92AF92BF92CF92DF92EF92FF920F93C7
:1000F0001F93CF93DF93CDB7DEB7C556D1090FB6A7
:10010000F894DEBF0FBECDBF91E080E80FB6F89443
:1001100080936100909361000FBE88E10FB6F89460
:1001200080936000109260000FBE8FEF88B980EC62
:100130008AB98AE38BB983E084B928985F98A9DFEC
:10014000CE01CF9624D3BE01615C7F4FCE010196D4
:100150000E949B09CE010196FDD4803611F05F9A72
:10016000FFCF289A2FEF83ED90E3215080409040FD
:10017000E1F700C0000028982FEF83ED90E32150B5
:1001800080409040E1F700C00000BE01615C7F4FFD
:10019000CE01C0966DD4CE01C096BFD3289A8530CB
:1001A00009F0D9C22FEF84E39CE0215080409040B9
:1001B000E1F700C0000028982FEF84E39CE0215075
:1001C00080409040E1F700C00000289A2FEF84E3C0
:1001D0009CE0215080409040E1F700C0000028984A
:1001E0002FEF83ED90E3215080409040E1F700C075
:1001F0000000CE01CE960E94CB09289A2FEF84E30F
:100200009CE0215080409040E1F700C00000289819
:100210002FEF84E39CE0215080409040E1F700C044
:100220000000289A2FEF84E39CE02150804090400A
:10023000E1F700C0000028982FEF84E39CE02150F4
:1002400080409040E1F700C00000289A2FEF84E33F
:100250009CE0215080409040E1F700C000002898C9
:100260002FEF83ED90E3215080409040E1F700C0F4
:100270000000F8948091680081608093680080910C
:100280006B00846080936B0078942DE069962FAFAB
:1002900069972CE06A962FAF6A972DE023962FAFCF
:1002A00023972CE024962FAF24972BE021962FAF95
:1002B00021972AE022962FAF229710E025961FAEB5
:1002C000259700E026961FAE2697F12C27961FAEA5
:1002D0002797E12C28961FAE2897D12C29961FAE80
:1002E0002997C12C2A961FAE2A97B12C2B961FAEA8
:1002F0002B97A12C2C961FAE2C97912C2D961FAED0
:100300002D97812C2E961FAE2E972F961FAE2F97CE
:1003100060961FAE609761961FAE619762961FAEA2
:10032000629763961FAE639764961FAE6497659657
:100330001FAE659766961FAE6697712C67961FAEC7
:100340006797512C412C312C212C612C68961FAEC3
:1003500068972BE16B962FAF6B972AE16C962FAFC6
:100360006C9729E16D962FAF6D9728E16E962FAFB0
:100370006E9727E16F962FAF6F9726E1A0962FAF6C
:10038000A09725E1A1962FAFA19724E1A2962FAFC8
:10039000A29723E1A3962FAFA39722E1A4962FAFB4
:1003A000A49721E1A5962FAFA59720E1A6962FAFA0
:1003B000A6978FEF7EDE863109F43CC108F0A1C01C
:1003C000823109F4F2C0A8F4803109F4C0C081314F
:1003D00081F7A6968FADA6976CDEA5968FADA597F3
:1003E00068DEA4968FADA49764DEA3968FADA39725
:1003F00090C1833109F4E9C08531D9F6CE01019667
:100400004FD3682E68969FAF6897CE0101964CD364
:10041000382E292ECE0101964BD3582E492ECE01CF
:1004200001964AD3782E67969FAF6797CE010196C3
:1004300047D365968FAF659766969FAF6697CE0157
:10044000019642D363968FAF639764969FAF64978C
:10045000CE0101963DD361968FAF619762969FAFB3
:100460006297CE01019638D32F968FAF2F97609663
:100470009FAF6097CE01019633D3882E2E969FAF03
:100480002E97CE01019630D3982E2D969FAF2D97A3
:10049000CE0101962DD3A82E2C969FAF2C97CE017E
:1004A00001962AD3B82E2B969FAF2B97CE0101969B
:1004B00027D3C82E2A969FAF2A97CE01019624D320
:1004C000D82E29969FAF2997CE01019621D3E82EE9
:1004D00028969FAF2897CE0101961ED3F82E279617
:1004E0009FAF2797CE0101961BD3082F26969FAF6B
:1004F0002697CE01019618D3182F25969FAF2597E2
:1005000097C0823209F484C070F4803209F46DC05F
:10051000813209F04ECF22968FAD2297CADD219607
:100520008FAD2197F6C0813309F47AC0803F09F47A
:10053000F2C0803309F03DCF63E0CE01CE9641D7C3
:1005400069968FAF69976A969FAF6A9771C0CE011F
:10055000019602D3A3966FAFA397A4967FAFA497FB
:10056000A5968FAFA597A6969FAFA697CE010196A9
:100570009AD36F966FAF6F97A0967FAFA097A19613
:100580008FAFA197A2969FAFA297CE0101961ED5DD
:100590006B966FAF6B976C967FAF6C976D968FAFC6
:1005A0006D976E969FAF6E9743C0A2968FADA29740
:1005B00080DDA1968FADA1977CDDA0968FADA09731
:1005C00078DD6F968FAD6F97A4C06E968FAD6E97E6
:1005D00070DD6D968FAD6D976CDD6C968FAD6C9701
:1005E00068DD6B968FAD6B9794C0CE01C096B1D18C
:1005F00021968FAF219722969FAF2297CE01C0966A
:100600008ED123968FAF239724969FAF249710C047
:1006100024968FAD24974DDD23968FAD239779C017
:100620006A968FAD6A9745DD69968FAD699771C0FF
:10063000F894BFCE68968FAD68973BDD862D39DD87
:10064000822D37DD832D35DD842D33DD852D31DDA4
:1006500067968FAD67972DDD872D2BDD66968FAD65
:10066000669727DD65968FAD659723DD64968FAD20
:1006700064971FDD63968FAD63971BDD62968FAD28
:10068000629717DD61968FAD619713DD60968FAD30
:1006900060970FDD2F968FAD2F970BDD2E968FADC8
:1006A0002E9707DD882D05DD2D968FAD2D9701DD69
:1006B000892DFFDC2C968FAD2C97FBDC8A2DF9DC85
:1006C0002B968FAD2B97F5DC8B2DF3DC2A968FAD17
:1006D0002A97EFDC8C2DEDDC29968FAD2997E9DC8C
:1006E0008D2DE7DC28968FAD2897E3DC8E2DE1DC9D
:1006F00027968FAD2797DDDC8F2DDBDC26968FAD1F
:100700002697D7DC802FD5DC25968FAD2597D1DCB9
:10071000812FCFDC4ECE83B7817F846083BF8091F1
:10072000640081608093640083B7816083BF7894A4
:10073000889583B78E7F83BF1A9B07C083B781607C
:1007400083BF889583B78E7F83BF809164008E7F3F
:10075000809364002ECE80E090E0CB59DF4F0FB63F
:10076000F894DEBF0FBECDBFDF91CF911F910F91E7
:10077000FF90EF90DF90CF90BF90AF909F908F90C1
:100780007F906F905F904F903F902F9008951092C0
:10079000B90080E28093B8000895613051F038F0DC
:1007A000623051F484E98093BC0080E0089584EACB
:1007B00001C084E88093BC008091BC0087FFFCCF1F
:1007C0008091B900887F0895FF920F931F93CF9374
:1007D000DF93EC01F62E142F022F110F60E0CE01F3
:1007E000DCDF8833D9F3883021F0803111F01FEF3E
:1007F0001AC01093BB0061E0CE01CFDF803271F3ED
:10080000883361F3883199F7F092BB0061E0CE0143
:10081000C4DF883261F70093BB0061E0CE01BDDF29
:10082000883229F711E062E0CE01B7DF8AE18A95CC
:10083000F1F700C0812FDF91CF911F910F91FF90B1
:100840000895DF92EF92FF920F931F93CF93DF9360
:10085000EC01D62E8901E42EEE0C8E2D8160F82E4F
:1008600060E0CE019ADF8833D9F3883021F08031FF
:1008700011F01FEF30C0E092BB0061E0CE018DDFD0
:10088000803271F3883361F3883199F7D092BB00DD
:1008900061E0CE0182DF883261F760E0CE017DDF6A
:1008A0008833F1F2883011F0803119F7F092BB00F3
:1008B00061E0CE0172DF883499F2883389F28034A6
:1008C000C1F661E0CE0169DF883599F68091BB0001
:1008D000F801808311E062E0CE015FDFFAE1FA9572
:1008E000F1F700C0812FDF91CF911F910F91FF9001
:1008F000EF90DF900895CF93DF931F92CDB7DEB7CF
:100900009E012F5F3F4FFC0142818081918199DFE1
:1009100089810F90DF91CF91089567E8ECCF0F9315
:100920001F93CF93DF93EC0168E8E5DF082F69E8B8
:10093000CE01E1DF182F6AE8CE01DDDF6BE8CE01E2
:10094000DADF802F90E0912BDF91CF911F910F91F3
:1009500008951F93CF93DF93EC0168E8CCDF69E83B
:10096000CE01C9DF6AE8CE01C6DF182F6BE8CE01E1
:10097000C2DF212F30E0A901582BCA01DF91CF91AE
:100980001F910895242FFC014281808191811CCF09
:10099000EF92FF920F931F93CF93DF9300D0CDB7C9
:1009A000DEB77C01162F2A834983A5DF2A81002E1A
:1009B00001C0220F0A94EAF7209528234981E42FE9
:1009C00001C0EE0F0A95EAF72E2B422F612FC701C7
:1009D0000F900F90DF91CF911F910F91FF90EF90AB
:1009E000D1CF0F93CF93DF93EC0105E027E040E0F8
:1009F00060E8CEDF02E027E04B8160E8CE01C8DF8F
:100A000000E021E04C8160E8CE01C2DF03E027E096
:100A10004D8165E8CE01BCDF00E027E04E8165E84E
:100A2000CE01B6DF02E021E04F816FE8CE01B0DFFA
:100A300001E021E048856FE8CE01AADF498567E93A
:100A4000CE01A0DF4A8568E9CE019CDF4B8569E9CC
:100A5000CE0198DF4C856AE9CE0194DF00E02FE0FB
:100A600048856EE9CE0194DFDF91CF910F91089513
:100A7000FC017183608329E222832BE0E0E0F1E056
:100A8000DC01139601900D922A95E1F7FFEF20E724
:100A900032E0F15020403040E1F700C00000A1CF2B
:100AA000FC01828593850895FC01848595850895D0
:100AB000FC01868597850895FC01808991890895B8
:100AC000FC01828993890895FC01848995890895A0
:100AD000FC01868997890895FC01808D918D089588
:100AE000FC01828D938D0895FC01848D958D089570
:100AF000FC01868D978D0895FC0180A191A1089538
:100B0000FC0182A190E00895FC0183A194A10895C5
:100B1000FC0185A190E00895FC0186A197A10895AC
:100B2000FC0180A591A50895FC0185A190E00895A0
:100B3000CF93DF931F92CDB7DEB79E012F5F3F4F5C
:100B4000FC014281808191817CDE89810F90DF915F
:100B5000CF91089560EDECCF8F929F92AF92BF92AC
:100B6000CF92DF92EF92FF921F93CF93DF93EC012E
:100B70006AEFDEDF182F6BEFCE01DADFC82ED12C43
:100B8000E12CF12C84E0CC0CDD1CEE1CFF1C8A95C2
:100B9000D1F7412F50E060E070E09CE0440F551F1A
:100BA000661F771F9A95D1F7C42AD52AE62AF72A15
:100BB0006CEFCE01BDDF482F50E060E070E024E034
:100BC00076956795579547952A95D1F74C295D29D4
:100BD0006E297F29CA84DB84E12CF12C4A015B0158
:100BE00034E0B594A794979487943A95D1F78C18EC
:100BF0009D08AE08BF089A01AB0163E05595479583
:100C0000379527956A95D1F7CC0CDD1CEE1CFF1C9F
:100C10002C193D094E095F09AC85BD8504D46B01D3
:100C20007C01EBE0F594E794D794C794EA95D1F76B
:100C3000A5019401C501B401FCD39B01AC01FCE00A
:100C40005595479537952795FA95D1F7AE85BF8588
:100C5000EAD3AEE09595879577956795AA95D1F7F4
:100C6000C60ED71EE81EF91ECBA6DCA6EDA6FEA674
:100C7000A5E0B0E0A7019601CCD360587F4F8F4F1D
:100C80009F4F672F782F892F992787FD9A95DF919E
:100C9000CF911F91FF90EF90DF90CF90BF90AF90DA
:100CA0009F908F9008953F924F925F926F927F92A4
:100CB0008F929F92AF92BF92CF92DF92EF92FF926C
:100CC0000F931F93CF93DF9300D000D0CDB7DEB743
:100CD0008C0167EF2DDFF82E68EFC80129DF282F80
:100CE00030E040E050E064E0220F331F441F551F06
:100CF0006A95D1F78F2D90E0A0E0B0E07CE0880FFE
:100D0000991FAA1FBB1F7A95D1F7282B392B4A2B85
:100D10005B2B29833A834B835C8369EFC80108DF2F
:100D2000382ED8019B964D905D906D907C909E974B
:100D30007594679457944794BAEF5B1A61087108E9
:100D4000C301B201F2E09595879577956795FA957D
:100D5000D1F79B01AC016DD34B015C019B01AC0150
:100D6000ABE05595479537952795AA95D1F7F801AA
:100D7000A28DB38D58D36B017C01A08DB18DA301E1
:100D8000920151D3660F771F881F991FC60ED71E79
:100D9000E81EF91E82E0F594E794D794C7948A95EB
:100DA000D1F7A489B589A50194019DE05595479592
:100DB000379527959A95D1F736D34B015C0123E0FF
:100DC000B594A794979487942A95D1F7A289B3896B
:100DD000A301920128D39595879577956795860EFF
:100DE000971EA81EB91E42E1B594A79497948794C4
:100DF0004A95D1F7F0E89F0EA11CB11CF801A0891B
:100E0000B189A501940105D34B015C015FE0B59464
:100E1000A794979487945A95D1F7432D50E060E0BA
:100E200070E0A4E07695679557954795AA95D1F718
:100E300089819A81AB81BC81482B592B6A2B7B2BF2
:100E4000DB01CA0122273327A901281B390B4A0BD2
:100E50005B0B86899789AA2797FDA095BA2FDC019D
:100E600099278827C80ED91EEA1EFB1E7CE0F59440
:100E7000E794D794C7947A95D1F72C193D094E0978
:100E80005F09A5E3BCE0C5D26B017C0190EBE91AD8
:100E90009CE3F90AF7FC12C081149104A104B10487
:100EA00009F479C0C701B601660F771F881F991F23
:100EB000A5019401E1D249015A011AC0811491049B
:100EC000A104B10409F467C061E070E080E090E043
:100ED000A5019401D1D24601570104C0880C991C88
:100EE000AA1CBB1C2A95D2F7880C991CAA1CBB1CF7
:100EF000C501B40123E096958795779567952A9566
:100F0000D1F7D8019096ED91FC9191979B01AC019E
:100F100090D29B01AC016DE056954795379527958A
:100F20006A95D1F7DF017FD26B017C017CE0F594FB
:100F3000E794D794C7947A95D1F7A5019401E2E09C
:100F40005695479537952795EA95D1F7F801A68DDF
:100F5000B78D69D2ADE09595879577956795AA95F8
:100F6000D1F7C60ED71EE81EF91E848D958DAA27CF
:100F700097FDA095BA2FC80ED91EEA1EFB1EB4E03D
:100F8000F594E794D794C794BA95D1F7C80CD91CB7
:100F9000EA1CFB1C03C0C12CD12C7601C701B60191
:100FA0000F900F900F900F90DF91CF911F910F91A5
:100FB000FF90EF90DF90CF90BF90AF909F908F9079
:100FC0007F906F905F904F903F9008954F925F9207
:100FD0006F927F928F929F92AF92BF92CF92DF9249
:100FE000EF92FF92CF93DF93EC016DEFA1DDC82E5E
:100FF0006EEFCE019DDD8BA49CA4ADA4BEA42CE21B
:10100000921A21E0A20AB108D12CE12CF12CFE2C7D
:10101000ED2CDC2CCC24C82AAEE0CC0CDD1CEE1C64
:10102000FF1CAA95D1F74EA15FA1662757FD6095D9
:10103000762FB4E1440F551F661F771FBA95D1F77D
:10104000C41AD50AE60AF70AA8A5B9A5A50194010C
:10105000EAD1C61AD70AE80AF90A30E4D30EE11C2D
:10106000F11C8FE0F594E794D794C7948A95D1F753
:10107000AAA5BB27A7FDB095A5019401D4D12B014A
:101080003C019AE075946794579447949A95D1F7E8
:10109000ADA1B0E0BED12BE095958795779567958A
:1010A0002A95D1F770588F4F9F4FA3019201C1D15C
:1010B0009B01AC016AE055954795379527956A9550
:1010C000D1F7405E5F4FABA1BCA1ADD1705E8F4F39
:1010D0009F4FEEE09595879577956795EA95D1F7BF
:1010E000A7019601A6D16B017C01FFE0959587953C
:1010F00077956795FA95D1F79B01AC019AD19B0141
:10110000AC01A7E05595479537952795AA95D1F756
:10111000AAA1B0E07ED1B4E09595879577956795C3
:10112000BA95D1F7A7019601261B370B480B590B2F
:10113000DA01C90157FF03C080E090E0DC01813093
:101140009105A10539E1B30724F080E090E0A0E02B
:10115000B9E1BC01CD01ECE0959587957795679550
:10116000EA95D1F7DF91CF91FF90EF90DF90CF908C
:10117000BF90AF909F908F907F906F905F904F90B7
:101180000895242FFC014281808191811DCB1F9302
:10119000CF93DF93EC0168E8CBDC182F69E8CE0130
:1011A000C7DC212F30E0382B3B872A876AE8CE0145
:1011B000BFDC182F6BE8CE01BBDC212F30E0382BD1
:1011C0003D872C876CE8CE01B3DC182F6DE8CE018B
:1011D000AFDC212F30E0382B3F872E876EE8CE0121
:1011E000A7DC182F6FE8CE01A3DC212F30E0382BCD
:1011F000398B288B60E9CE019BDC182F61E9CE0189
:1012000097DC212F30E0382B3B8B2A8B62E9CE0113
:101210008FDC182F63E9CE018BDC212F30E0382BD7
:101220003D8B2C8B64E9CE0183DC182F65E9CE0160
:101230007FDC212F30E0382B3F8B2E8B66E9CE01EF
:1012400077DC182F67E9CE0173DC212F30E0382BD3
:10125000398F288F68E9CE016BDC182F69E9CE0140
:1012600067DC212F30E0382B3B8F2A8F6AE9CE01D3
:101270005FDC182F6BE9CE015BDC212F30E0382BCF
:101280003D8F2C8F6CE9CE0153DC182F6DE9CE0118
:101290004FDC212F30E0382B3F8F2E8F6EE9CE01AF
:1012A00047DC182F6FE9CE0143DC212F30E0382BCB
:1012B00039A328A361EACE013BDC8AA361EECE010B
:1012C00037DC182F62EECE0133DC212F30E0382BD3
:1012D0003CA32BA363EECE012BDC8DA364EECE01E9
:1012E00027DC182F65EECE0123DC8F7040E1149FC0
:1012F00090011124282B3FA32EA365EECE0118DC0C
:10130000182F66EECE0114DC212F30E014E0359565
:1013100027951A95E1F740E1849FC0011124282BFD
:10132000392B39A728A767EECE0102DC8AA7DF9107
:10133000CF911F910895CF93DF93EC017983688358
:1013400086E78A8387E0EBE0F1E0DE011396019007
:101350000D928A95E1F71BA61CA61DA61EA6CE011E
:1013600016DF43E062EFCE010CDF4FE364EFCE0106
:10137000DF91CF9106CFECE7F0E08081806480833D
:10138000EAE7F0E08081836880830895569A5E984A
:10139000F2DF81E00895FACF80917C006F70807F4A
:1013A000682B60937C0080917A00806480937A003F
:1013B00080917A0086FDFCCF809178009091790031
:1013C0000895EF92FF920F931F93CF93DF938C01B9
:1013D000E62E5E9A8FE19EE40197F1F700C00000CF
:1013E000F12CC0E0D0E0FE1439F062E0C801D4DF97
:1013F000C80FD91FF394F7CF5E986F2D70E0CE0120
:1014000027D0CB01DF91CF911F910F91FF90EF90EB
:10141000089554D0A59F900DB49F900DA49F800D6A
:10142000911D11240895B7FFF4CFF3DF821B930BB6
:101430000895DB018F939F93ECDFBF91AF91A29F43
:10144000800D911DA39F900DB29F900D11240895C2
:10145000AA1BBB1B51E107C0AA1FBB1FA617B707DA
:1014600010F0A61BB70B881F991F5A95A9F78095F6
:101470009095BC01CD010895A1E21A2EAA1BBB1BB9
:10148000FD010DC0AA1FBB1FEE1FFF1FA217B30750
:10149000E407F50720F0A21BB30BE40BF50B661F66
:1014A000771F881F991F1A9469F76095709580952A
:1014B00090959B01AC01BD01CF010895A29FB001A1
:1014C000B39FC001A39F700D811D1124911DB29F78
:0E14D000700D811D1124911D0895F894FFCF19
:1014DE00030100010100FFFF0000000404000505E8
:0214EE000305F4
:00000001FF
